:100000000C9434000C943E000C943E000C943E0082
:100010000C943E000C943E000C943E000C943E0068
:100020000C943E000C943E000C943E000C943E0058
:100030000C943E000C943E000C943E000C943E0048
:100040000C943E000C943E000C943E000C943E0038
:100050000C943E000C943E000C943E000C943E0028
:100060000C943E000C943E0011241FBECFEFD8E04C
:10007000DEBFCDBF0E9471000C949D000C94000067
:1000800001E0982F9027762F7027542F5027322F7A
:100090003027A92FA170B0E0B92FB623C82FC723EE
:1000A000C323BC2BBB0FB270AB2BB72FB423C92F0C
:1000B000C423BC2BC82FC623C523BC2BBB0FBB0F2F
:1000C000B470AB2BB92FB223C82FC623C423BC2BCB
:1000D000BB0FBB0FBB0FB870AB2B8A2F880F880FDD
:1000E00008958CE38AB980E284B98FE085B9C0E2D3
:1000F000C5B92FEF83EC99E0215080409040E1F7A3
:1001000000C0000083B163B143B123B123FB2227B8
:1001100020F942FB442740F96695617081700E9486
:1001200040008BB915B82FEF83EC99E02150804047
:0E0130009040E1F700C00000DBCFF894FFCF55
:00000001FF
