:100000000C9434000C943E000C943E000C943E0082
:100010000C943E000C943E000C943E000C943E0068
:100020000C943E000C943E000C943E000C943E0058
:100030000C943E000C943E000C943E000C943E0048
:100040000C943E000C943E000C943E000C943E0038
:100050000C943E000C943E000C943E000C943E0028
:100060000C943E000C943E0011241FBECFEFD8E04C
:10007000DEBFCDBF0E9440000C9479000C940000BC
:100080008CE08AB950E040E060E070E0E1E00CC054
:10009000511126C040E02FEF87EA91E621508040C1
:1000A0009040E1F700C000008BB1837F8BB99BB11A
:1000B000842F880F880F9B01220F331F220F331FBD
:1000C000220F331F822B892B8BB94111E1CF852F52
:1000D0008E2751110CC0452F51E061E070E0DBCF5D
:1000E000452F81E0582F5E27652F70E0D4CF41E087
:0600F000F9CFF894FFCFE8
:00000001FF
