:100000000C9434000C943E000C943E000C943E0082
:100010000C943E000C943E000C943E000C943E0068
:100020000C943E000C943E000C943E000C943E0058
:100030000C943E000C943E000C943E000C943E0048
:100040000C943E000C943E000C943E000C943E0038
:100050000C943E000C943E000C943E000C943E0028
:100060000C943E000C943E0011241FBECFEFD8E04C
:10007000DEBFCDBF0E9440000C94CC000C94000069
:100080008CE38AB980E284B980EC8BB983E085B9CE
:1000900080E090E050E040E0F0E2E1E0F5B92FEFE1
:1000A00033EC69E0215030406040E1F700C00000CF
:1000B000682F6E279923C1F1882309F43FC04111AD
:1000C00063C0552309F45EC0292F2E2770E02295C6
:1000D000207F552321F0992311F081112DC090E04C
:1000E000660F660F6BB98BB1872B8BB98BB1282B41
:1000F0002BB98BB1892B8BB989B186FB882780F905
:1001000099B1991F9927991F53B1517043B14695E1
:10011000417015B82FEF33EC69E02150304060405A
:10012000E1F700C00000BACF442321F170E0511183
:100130000EC020E08111D3CF90E2D2CF78E05111F0
:1001400008C0282F2295207F442349F2F3CF811144
:1001500005C04423F9F090E220E1C2CF21E030E075
:10016000442309F4B4CF2295207F992309F4B7CF13
:1001700090E2B6CF782F770F770F770F5111E7CF37
:1001800020E0ADCF70E0DDCF5523E1F3292F2E27FE
:0C01900070E0E9CF20E19DCFF894FFCF94
:00000001FF
